:020000040000FA
:020000002B29AA
:0400080080313529E5
:02000E00B70831
:10001000031D0B280800F93000000000000000005C
:1000200000000000000000000000000000000000D0
:10003000FF3E031D0C28000000000000000000002F
:1000400000000000000000000000000000000000B0
:10005000B70B0B28080008302F02031808000030E7
:100060008500203084002F08AF0A840746088000EE
:100070000800C401C501C001C101C2011030420520
:10008000C300C308031D08000310C00DC10DB90D46
:10009000BA0DC40DC50D3C084502031D51283B088F
:1000A0004402031C5A283B08C4023C08031CC50335
:1000B000C5024014C20A3E2820009114911221006A
:1000C0009110911623001F129F159F101F101E13D1
:1000D0009E161E129E111E111E109D171D139D1699
:1000E0001D169C011F309B0008007A3021009900EA
:1000F00022009D131D11DE3021008C0023008C0195
:10010000210095131C3024008C00210095129511BC
:100110001511951415148B160B118B170B175C20EA
:1001200022008C168C16FF302000B700072022001A
:100130008C128C12FF302000B700072022008C1692
:100140008C16FF302000B700072022008C128C1282
:100150002000B101B201B301B401B501B601AE088E
:100160000319CD28AE01B108031DB928B20803193F
:10017000BD28B1080319B203B103B508031DC32894
:10018000B6080319CD28B5080319B603B50BCD2859
:10019000B608031DCD2822008C122000B108031DD3
:1001A0000929B208031D09290C09B7001C30B7053D
:1001B0003708330603193408031909291430B1002C
:1001C000B2013708B300B4013708103A0319F52813
:1001D000083A0319FA280C3A0319FE28103A0319B1
:1001E00002290C3A031906290929AA080319AB03A5
:1001F000AA030929F830C6002B200929FA30C600C5
:100200002B200929FC30C6002B200929FB30C60011
:100210002B2023009E1C1A292000AF0803191A293D
:100220000030850020308400AF032F0884070008C9
:1002300023009A002000B0080319AF28AC08031D62
:10024000AF28AD08031DAF2822008C161430200003
:10025000B500B601AF282000AE01AA01AB01AF0185
:10026000AC01AD01B001803175280B1D3D29053071
:10027000200095000130AE000B112000911E0900F6
:10028000230019082000B8003808F83A031D772920
:10029000AB1F4E29AA0A0319AB0A5129F830C60030
:1002A0002B200130B0002C08B9002D08BD00B90A80
:1002B0000319BD0A3D08BA00BD1F6329B909BA096F
:1002C000B90A0319BA0A1830BB00BC013920440826
:1002D000BE004508BF00BD1F7229BE09BF09BE0A86
:1002E0000319BF0A3E08AC003F08AD007D2938085D
:0E02F000FA3A031D7D29AC01AD0191120900FF
:020000040001F9
:02000E00A4FF4D
:02001000FFDE11
:00000001FF
