:020000040000FA
:02000000412994
:0400080080314D29CD
:02000E00B9082F
:10001000031D0B280800F93000000000000000005C
:1000200000000000000000000000000000000000D0
:10003000FF3E031D0C28000000000000000000002F
:1000400000000000000000000000000000000000B0
:10005000B90B0B28080008303102031808000030E3
:100060008500203084003108B10A840749088000E7
:100070000800C701C801C301C401C501103045050E
:10008000C600C608031D08000310C30DC40DBC0D37
:10009000BD0DC70DC80D3F084802031D51283E087D
:1000A0004702031C5A283E08C7023F08031CC80326
:1000B000C8024314C50A3E28200091149112210061
:1000C0009110911623001F129F159F101F101E13D1
:1000D0009E161E129E111E111E109D171D139D1699
:1000E0001D169C011F309B0008007A3021009900EA
:1000F00022009D131D11DE3021008C0023008C0195
:10010000210095131C3024008C00210095129511BC
:100110001511951415148B160B118B170B175C20EA
:1001200022008C168C16FF302000B9000720220018
:100130008C128C12FF302000B900072022008C1690
:100140008C16FF302000B900072022008C128C1280
:100150002000B301B401B501B601B701B801B00880
:100160000319CD28B001B308031DB928B408031939
:10017000BD28B3080319B403B303B708031DC3288C
:10018000B8080319CD28B7080319B803B70BCD2851
:10019000B808031DCD2822008C122000B308031DCF
:1001A0001129B408031D11290C09B9001C30B90527
:1001B0003908350603193608031911291430B3001C
:1001C000B4013908B500B6013908103A0319F52809
:1001D000083A0319FA280C3A0319FE28103A0319B1
:1001E00005290C3A03190B291129AA080319AB0395
:1001F000AA031129F830C9002B201129FA30C900AF
:100200002B200130AC00AD011129FC30C9002B209E
:10021000AC01AD011129FB30C9002B200130AC002D
:10022000AD0123009E1C22292000B10803192229B8
:100230000030850020308400B103310884070008B5
:1002400023009A002000B2080319AF28AE08031D4E
:10025000AF28AF08031DAF2822008C162000AC0881
:10026000031D3529AD08031939293230B900BA0107
:100270003C290130B900BA013908B7003A08B80082
:10028000AF282000B001AA01AB01AC01AD01B10162
:10029000AE01AF01B201803175280B1D5529053023
:1002A000200095000130B0000B112000911E0900C4
:1002B000230019082000BB003B08F83A03196A29FB
:1002C000023A0319A129063A0319A729073A031983
:1002D000AA29AD29AC08031D7129AD08031D712998
:1002E0007B29AB1F7829AA0A031D7B29AB0A7B292E
:1002F000F830C9002B200130B2002E08BC002F08B6
:10030000C000BC0A0319C00A4008BD00C01F8D29E7
:10031000BC09BD09BC0A0319BD0A1830BE00BF01E3
:1003200039204708C1004808C200C01F9C29C109E4
:10033000C209C10A0319C20A4108AE004208AF004F
:10034000AD290130AC00AD01AE01AF01AD29AC016A
:0E035000AD01AD290130AC00AD0191120900E4
:020000040001F9
:02000E00A4FF4D
:02001000FFDE11
:00000001FF
