:020000040000FA
:02000000B42822
:040008008031C72854
:02000E00F408F4
:10001000031D0B280800F93000000000000000005C
:1000200000000000000000000000000000000000D0
:10003000FF3E031D0C28000000000000000000002F
:1000400000000000000000000000000000000000B0
:10005000F40B0B280800200091109112210091143C
:10006000911623001F129F159F101F101E139E161E
:100070001E129E111E111E109D171D139D161D167A
:100080009C011F309B00080008002000E4080319B1
:100090006428E401E208031D5028E30803195428EA
:1000A000E2080319E303E203E008031D5A28E1080C
:1000B00003196428E0080319E103E00B6428E10850
:1000C000031D642822008C122000E208031D080092
:1000D000E308031D08000C09EE001C30EE056D0856
:1000E0006E06031908001430E200E3016E08ED000B
:1000F0006E08EF00442008007A30210099002200A9
:100100009D131D11DE3021008C0023008C01210085
:1001100095131C3024008C002100951295111511A7
:10012000951415148B160B118B170B172B2022000F
:100130008C168C16FF30F40007208C128C12FF30C6
:10014000F40007208C168C16FF30F40007208C1268
:100150008C122000EE01EF01F001F101F201F30138
:1001600008007C204520B2282000E401E401E501DC
:10017000E601E701E801E901EA01EB01EC01E40134
:10018000E001E101E201E301ED018031B1280B1D45
:10019000CF280530200095000130E4000B1120002D
:1001A000911EE628680867060319E52800308500D7
:1001B0004030840068088407000823009A0020006B
:1001C000680AF5001F307505E8009112911E0900BC
:1001D00023001908F5002000650AF6001F30F60517
:1001E000660876060319FE2800308500203084005A
:1001F00065088407750880007608E50091120900FB
:020000040001F9
:02000E00A4FF4D
:02001000FFDE11
:00000001FF
